:05087F007465737400B4
:0C085F00758920758DFD759850D28E2291
:080877008F993099FDC299220E
:06082D008B088A09890A0C
:10083300E4FDFCAB08AA09A90A8D828C8312080087
:0D084300FF600A1208770DBD00010C80E671
:010850002285
:0E08510012085F7BFF7A08797F12082D80FE67
:0300000002086B88
:0C086B00787FE4F6D8FD75810A02085180
:10080000BB010CE58229F582E5833AF583E02250AD
:1008100006E92582F8E622BBFE06E92582F8E222F7
:0D082000E58229F582E5833AF583E4932211
:00000001FF
