:1009E40052444C004B657920312069732070726544
:1009F40073736564004B65792032206973207072CB
:100A04006573736564004B657920332069732070C6
:100A1400726573736564004B6579203420697320B3
:100A240070726573736564004E6F206B6579205036
:0C0A340072657373656400380F01068062
:10090F0078087C007D007BFF7A0A793B7E007F05AB
:10091F001208D0E4F50E7408250EF8E6F50DFF1257
:10092F000A92050EE50ED3940440EB7F01120A9252
:10093F007F80120A927BFF7A0979E4120A40120A29
:10094F0065120A65120A65120A652083187F011263
:10095F000A927F80120A927BFF7A0979E8120A4085
:10096F002083E780FB2082187F01120A927F80127A
:10097F000A927BFF7A0979F9120A402082CC80FB18
:10098F002081187F01120A927F80120A927BFF7AD0
:10099F000A790A120A402081B180FB2080187F015A
:1009AF00120A927F80120A927BFF7A0A791B120A2F
:1009BF004020809680FB7F01120A927F80120A925C
:1009CF007BFF7A0A792C120A40120A65120A651205
:0509DF000A6502095940
:100A8200D2A7C2B5D2B630A706C2B7D2B780F72274
:0E0A9200120A828FA0C2B5C2B6D2B7C2B72276
:100A40008B0F8A108911AB0FAA10A9111208F6603A
:100A5000130511E5117002051014F91208F6FF12C2
:050A60000AA080E22263
:0E0AA000120A828FA0D2B5C2B6D2B7C2B72258
:100A65007F607EEA7D607CEAEF1FAA0670011E4A60
:0C0A750070F6ED1DAE0470011C4E70F612
:010A81002252
:03000000020AAE43
:0C0AAE00787FE4F6D8FD75811102090F75
:10080000E709F608DFFA8046E709F208DFFA803EDA
:1008100088828C83E709F0A3DFFA8032E309F608C7
:10082000DFFA8078E309F208DFFA807088828C832F
:10083000E309F0A3DFFA806489828A83E0A3F608E3
:10084000DFFA805889828A83E0A3F208DFFA804CBD
:1008500080D280FA80C680D4806980F28033801094
:1008600080A680EA809A80A880DA80E280CA8033FD
:1008700089828A83ECFAE493A3C8C582C8CCC58375
:10088000CCF0A3C8C582C8CCC583CCDFE9DEE78045
:100890000D89828A83E493A3F608DFF9ECFAA9F0C4
:1008A000EDFB2289828A83ECFAE0A3C8C582C8CC1A
:1008B000C583CCF0A3C8C582C8CCC583CCDFEADE33
:1008C000E880DB89828A83E493A3F208DFF980CC95
:1008D00088F0EF60010E4E60C388F0ED2402B4048E
:1008E0000050B9F582EB2402B4040050AF23234535
:0608F00082239008507302
:1008F600BB010689828A83E0225002E722BBFE0200
:09090600E32289828A83E4932232
:00000001FF
